:4000000080673030303030307e3030307e3030307e3030307e3030307e3030307e3030307d06147e7e3030307d03b57e7d03b67e7e3030307e3030307e3030307e303030a3
:400040007e3030307e3030307e3030307e3030307e3030307e3030307e3030307e3030307e3030307e303030711062e38770ef50202850402850602841fefb50804e55f87b
:400080000055f900711062e00270ef62e338627105627505627905627d0562d10750004e62d30762d00062d50062d40071c07c03a262d000500157d00828531b18750900f6
:4000c000284b511b800475090062e300082860d574a04b187509000828531b187509000828a01c531a1875090008283f1b471bffb0065dd57460d5187a1abfeb8fc91875a6
:4001000009000828531a50003f1b471bffb0085dd57460d550007a1abfef188faa18711070ef62e000711062e00043e78070ef62e2007c0a7c8fff50107f303030303030bf
:40014000303030303030303030303030303030303030303030303030303030303030303030303030303030303030303030303030303030303030303030303030303030307f
:40018000303030303030303030303030303030303030303030303030303030303030303046696e2070726f6772616d6100507275656261330050727565626132007072752f
:4001c0006562613100526563696269656e646f000d3d71106200be6201e170ef620341620200711062020062030070ef62010071106204106205ef70ef6207af6206507121
:400200001062060062070070ef62050071106208ff62090070ef620b00620a007110620a00620b0070ef6209007110620c00620d0070ef620f00620e007110620e00620f66
:400240000070ef620d00711062100062110070ef621300621200711062120062130070ef621100711062140062150070ef621700621600711062160062170070ef621500c0
:40028000711062180062190070ef621b00621a007110621a00621b0070ef6219007110621c00621d0070ef621f00621e007110621e00621f0070ef621d0070ef6260286233
:4002c000660062630562650062e60062e70062d60062b03062b10062b20062b33362b43362b50862b60062b85562b90062ba1062bb3362bc3362bd0062be0062c00062c132
:400300000062c22062c33362c43362c50062c60062c85562c90062ca3062cb3362cc3362cd0062ce00626c00626d00626e00626f00622304622100622200622f00622d0065
:40034000622e00622b00622900622a00711062610062690062600062620062673362683362630062660062d10062d30062d00062d20062e10062e20062df0062de0062dd19
:400380000062e700622020622105622228622c05622de9622e0062280d622909622a0470ef7f5502005503ff5504007c03af7f7c01d270ef7f7e08105dd30858015d2f084e
:4003c0002108b00418805d1821e0a0112c005d2e2120a050412ffe432f0180485d2e470001b041390db0142e000162d300703f7180560500703f7100802a3920c02662d365
:40040000003c010fc011703f7180560500703f71002e0010800e703f71805405703f7100755a011860d320187e43e10443e1087f41e1fb41e1f77f71102101a00743281081
:4004400070ef7f4128ef70ef7f2901602b602f912a7f412bfe412ffe7f60297f5d2b7f5d2e7f5d2f7f210171103901a0064128ef800443281070ef7f082101a00643e108bb
:40048000800441e1f7182102a00643e104800441e1fb7f303132333435363738394142434445460867676767210fffe7900f18210fffe090087f4b9fea5b9fe77f492b1085
:4004c000affc60297f492f08affc5d2e7f5d2f082108b00418800b5d2e4b1821a0b0034b7f50007f5d2f21e8082108b0071829014b80071821e04b5d2e7f70bf60d3520052
:40050000a0069fb9758ff8703f71c07f70bf62d3074f52fba01a7bfb52fc59fd60d35200492b10affc60294f62d30777fd8fe4703f71c07f4f3dfa00b0063dfb00a01d1038
:4005400052fc59fd28492b10affc60292007fd010ffc0017fb011ffa008fdb703f71c07f081028a00b9f56201875dff5748ff238fe7f500d9f47500a9f437f62d00055053d
:400580000062d00055010026000062d000551c007f62d000510021017f62d000510021f026000f7f62d00051017f70bf62d0005005021c5c62d3005200b004108033392075
:4005c000b01175761c52003c1c0fbff310560000801f1075761c3c1c0faff35200a0123920bff1560000761c3c1c0fb004551c0f20103d0000b00b2057005000703f71c044
:400600007f205000703f71c07f62d0005005021c5c50007f7e43e1017f41e1fe7f4323017f4123fe7f60217f60227f5d227f4f38025d23085d22085d205d22540150004993
:40064000f701a0035001540070fe4123fe18602218602318703f71c07e5d205d227f081028b00420187f9044201875dff2748fef30313233343536373839414243444546b3
:400680000867676767210fffe7902118210fffe0901a7f4b9fea5b9fe77f70bf60d35200a0069008758ff8703f71c07f90650867676767210f903b18210f40404090337f20
:4006c00090510867676767210f900918210f40404090017f0862d0002602805102600818210f29102a026008530240218f530260087f0862d0002602802e02205102600874
:4007000018210f29302a02600853024021af530260087f0862d000260280510260082603f051037110600870ef2e024051026008402e02505102600840405d08082602c016
:40074000510260084040402e02505102600840402602c051026008182108bfd62e037f51037110600870ef187f62d0002603802e037f260480510371106008510460097047
:40078000ef50fa906750fa906350039f475052905b50039f3f90639061905f50039f35505a904950029f2d505a904150089f11505a903950019f09505a903150069f01509a
:4007c0000e9efd502c9ef950089ef5500c9ef150039eed505a90157f80c094d4210310fff74f03ff209ed9703f71c07f900c78bffc7f08193a7c010101010871105de07043
:40080000ef21073905d006ffe978bffe187f4f1052fd59fc9fc6203dfa00b005500080113dfa06d00752fa15fa8006500617fa059e7a7bfbbfe2703f71c07f4f52fd2103d3
:4008400008ff9503fc9e793dfa00b005502080133dfa09d00952fa7856fa00800617fa0850079e4818787bfbbfd7703f71c07f4f080850409e4a56000156010852003b01b8
:40088000d0055000800350ff9e227b01bfef77003d0009bfe51818500c9e25703f71c07f0010181c1e1f1f001008040201004f3803540250409e0956000056010852003d2e
:4008c0000200b005ffda8003ffdd9de07b01bfee77003d0007bfe438fd500c9de3703f71c07f104f380356003056010080371052fc7c04bd7c04c562d00020540252023b50
:40090000fcb0045600311052007c04bd20520162d000531b01015401511b54013d010ab0045600013d0030afc638fd207f104f3803560030560100803a107c04c562d000f5
:400940002054021052027c04bd7c04c562d0002054003d0031b00552028022520162d000531b01015401511b54013d010ab0045600013d0030afc362d00050ff38fd207fca
:40098000104f380d5604005601e856000352fc540652fb540556070080ae52000852010852050852060862d0007c0cb618540318540238fe5200085201085205085206085d
:4009c0007c0cb638fe1854061854055000130352023180531750801a17d02462d00052030130531b5519075a1806180852040218531850000a1960d5511b3f1877043d02a3
:400a000000b0293d0300b02450003b04d01e62d000551b075a1a061a085204021a531a50000a1b60d550303f1a7704500008500a0852000852010862d0007c0cb6185401de
:400a400018540038fe77073d0704cf4f62d000551b075a1a061a085204021a531a50000a1b60d550003f1a5a1a061a0810500708511a5c187c069a2038f3207f104f3806ec
:400a800010509c7c0625504e7c06287c061d50007c04497c07697c076950017c06c050010850c55c187c065e20560100560000800677010f000062d00052015318520053f7
:400ac0001951181150511919c350001900500031801980cfdd1050017c06c0209e4f62d00054029e4862d00054039e4162d00054041050017c06c050010850bd5c187c060f
:400b00005e20560100560000800677010f000062d000520153185200531951181150511919c350001900500031801980cfdd1050017c06c02062d0005202531a50000851b1
:400b40001a089e3c38fe560100560000800677010f000062d000520153185200531951181150511919c350001900500031801980cfdd1050017c06c050010850b55c187c2b
:400b8000065e20560100560000800677010f000062d000520153185200531951181150511919c350001900500031801980cfdd1050017c06c02062d0005203531a5000087b
:400bc000511a089dbb38fe560100560000800677010f000062d000520153185200531951181150511919c350001900500031801980cfdd1050017c06c050010850ad5c1860
:400c00007c065e20560100560000800677010f000062d000520153185200531951181150511919c350001900500031801980cfdd1050017c06c02062d0005204531a500085
:400c400008511a089d3a38fe560100560000800677010f000062d000520153185200531951181150511919c350001900500031801980cfdd1050017c06c050010850a05c7d
:400c8000187c065e20560100560000800677010f000062d000520153185200531951181150511919c350001900500031801980cfdd38fa208fff104f50003dfb80c00d37aa
:400cc000fcff77fc37fbff0dfb50c03df980c00e37faff77fa37f9ff0ff9003180087c0d04186ad00c37fcff37fbff77fc0ffb006ad00c37faff37f9ff77fa0ff9002070af
:400d00003f71c07f5dd00862d00050005316531755151066fc6cfb6b166b1751161bfa51171bf9c009531752fa1c1677fc7a15bfe3511654fa511754f91860d07fff003047
:400d40003030303030303030303030303030303030303030303030303030303030303030303030303030303030303030303030303030303030303030303030303030303073
:400d80003030303030303030303030303030303030303030303030303030303030303030303030303030303030303030303030303030303030303030303030303030303033
:400dc00030303030303030303030303030303030303030303030303030303030303030303030303030303030303030303030303030303030303030303030303030303030f3
:400e000030303030303030303030303030303030303030303030303030303030303030303030303030303030303030303030303030303030303030303030303030303030b2
:020000040010ea
:020000040020da
:0200000094b1b9
:00000001ff
