:4000000080673030303030307e3030307e3030307e3030307e3030307e3030307e3030307d04107e7e3030307d039c7e7d039d7e7e3030307e3030307e3030307e303030db
:400040007e3030307e3030307e3030307e3030307e3030307e3030307e3030307e3030307e3030307e303030711062e38770ef50202850402850602841fefb50804e55f87b
:400080000055f900711062e00270ef62e338627105627505627905627d0562d10750004e62d30762d00062d50062d40071c07c038962d000500157b708285316187509002d
:4000c000284b5116800475090062e300082860d574a04b1875090008285316187509000828a01c53151875090008283f164716ffb0065dd57460d5187a15bfeb8fc91875c4
:4001000009000828531550003f164716ffb0085dd57460d550007a15bfef188faa18711070ef62e000711062e00043e78070ef62e2007c06958fff50107f303030303030be
:40014000303030303030303030303030303030303030303030303030303030303030303030303030303030303030303030303030303030303030303030303030303030307f
:400180003030303030303030303030303030303030303030303030303030303030303030426f746f6e20726f6a6f0050484f544f536f432056300006fc71106200a0620146
:4001c000ff70ef62035f620200711062020062030070ef62010071106204106205ef70ef6207af620650711062060062070070ef620500711062087f62098070ef620b8038
:40020000620a007110620a00620b0070ef6209007110620c00620d0070ef620f00620e007110620e00620f0070ef620d00711062100062110070ef621300621200711062cf
:40024000120062130070ef621100711062140062150070ef621700621600711062160062170070ef621500711062180062190070ef621b00621a007110621a00621b007067
:40028000ef6219007110621c00621d0070ef621f00621e007110621e00621f0070ef621d0070ef62602862660062630562650062e60062e70062d60062b03062b10062b2c2
:4002c0000062b33362b43362b50862b60062b85562b90062ba1062bb3362bc3362bd0062be0062c00062c10062c22062c33362c43362c50062c60062c85562c90062ca3011
:4003000062cb3362cc3362cd0062ce00626c00626d00626e00626f00622304622100622200622f00622d00622e00622b00622900622a0071106261006269006260006262e6
:400340000062673362683362630062660062d10062d30062d00062d20062e10062e20062df0062de0062dd0062e700622020622105622228622c05622de9622e0062280d91
:40038000622909622a0470ef7f55020055037f5504807c03967f7c01b970ef7f7e08105dd30858015d2f082108b00418805d1821e0a0112c005d2e2120a050412ffe432f6d
:4003c0000180485d2e470001b041390db0142e000162d300703f7180560500703f7100802a3920c02662d3003c010fc011703f7180560500703f71002e0010800e703f71a5
:40040000805405703f7100755a011860d320187e7e081028b00420187f9044201875dff2748fef303132333435363738394142434445460867676767210fffe7902118213f
:400440000fffe0901a7f4b9fea5b9fe77f70bf60d35200a0069008758ff8703f71c07f90650867676767210f903b18210f40404090337f90510867676767210f900918217f
:400480000f40404090017f0862d0002602805102600818210f29102a026008530240218f530260087f0862d0002602802e02205102600818210f29302a0260085302402152
:4004c000af530260087f0862d000260280510260082603f051037110600870ef2e024051026008402e02505102600840405d08082602c0510260084040402e025051026096
:400500000840402602c051026008182108bfd62e037f51037110600870ef187f62d0002603802e037f2604805103711060085104600970ef50fa906750fa906350039f4791
:400540005052905b50039f3f90639061905f50039f35505a904950029f2d505a904150089f11505a903950019f09505a903150069f01500e9efd502c9ef950089ef5500c7f
:400580009ef150039eed505a90157f80c094d4210310fff74f03ff209ed9703f71c07f900c78bffc7f08193a7c010101010871105de070ef21073905d006ffe978bffe1828
:4005c0007f4f1052fd59fc9fc6203dfa00b005500080113dfa06d00752fa15fa8006500617fa059e7a7bfbbfe2703f71c07f4f52fd210308ff9503fc9e793dfa00b0055088
:400600002080133dfa09d00952fa7856fa00800617fa0850079e4818787bfbbfd7703f71c07f4f080850409e4a56000156010852003b01d0055000800350ff9e227b01bff6
:40064000ef77003d0009bfe51818500c9e25703f71c07f0010181c1e1f1f001008040201004f3803540250409e0956000056010852003d0200b005ffda8003ffdd9de07b7b
:4006800001bfee77003d0007bfe438fd500c9de3703f71c07f104f3802107c051c7c051c50010850ab5c187c0411570050017c058f204300205d0062d00053162616203cb7
:4006c0001620aff2430020560000800377003d0064cffa8004430020490020aff9560000800377003d0064cffa1050010850a05c187c0411208fbf38fe208fffff00303045
:4007000030303030303030303030303030303030303030303030303030303030303030303030303030303030303030303030303030303030303030303030303030303030b9
:400740003030303030303030303030303030303030303030303030303030303030303030303030303030303030303030303030303030303030303030303030303030303079
:400780003030303030303030303030303030303030303030303030303030303030303030303030303030303030303030303030303030303030303030303030303030303039
:4007c00030303030303030303030303030303030303030303030303030303030303030303030303030303030303030303030303030303030303030303030303030303030f9
:020000040010ea
:020000040020da
:02000000dcc55d
:00000001ff
