:4000000080673030303030307e3030307e3030307e3030307e3030307e3030307d0e4e7e7d05ff7e7e3030307d03a07e7d03a17e7e3030307d06497e7e3030307e3030305e
:400040007e3030307e3030307e3030307e3030307e3030307e3030307e3030307e3030307e3030307e303030711062e38770ef50202850402850602841fefb50804e55f87b
:400080000055f900711062e00270ef62e338627105627505627905627d0562d10750004e62d30762d00062d50062d40071c07c039662d000500157a0082853181875090035
:4000c000284b5118800475090062e300082860d574a04b1875090008285318187509000828a01c53171875090008283f184718ffb0065dd57460d5187a17bfeb8fc91875b8
:4001000009000828531750003f184718ffb0085dd57460d550007a17bfef188faa18711070ef62e000711062e00043e78070ef62e2007c0e428fff50107f30303030303001
:40014000303030303030303030303030303030303030303030303030303030303030303030303030303030303030303030303030303030303030303030303030303030307f
:4001800030303030303030303030303030303030303030303030303030303030303030300fa571106200556201aa70ef62030062020071106202006203aa70ef6201aa714d
:4001c000106204106205ef70ef6207af620650711062060062070070ef62050071106208556209aa70ef620baa620a007110620a00620b0070ef6209007110620c00620d23
:400200000070ef620f00620e007110620e00620f0070ef620d00711062100062110070ef621300621200711062120062130070ef621100711062140062150070ef6217001e
:40024000621600711062160062170070ef621500711062180062190070ef621b00621a007110621a00621b0070ef6219007110621c00621d0070ef621f00621e00711062db
:400280001e00621f0070ef621d0070ef62602862660062630562650062e60062e70062d60062b03062b10062b20062b33362b43362b50862b60062b85562b90062ba10620d
:4002c000bb3362bc3362bd0062be0062c00062c10062c22062c33362c43362c50062c60062c85562c90062ca3062cb3362cc3362cd0062ce00626c00626d00626e00626f93
:4003000000623300623100623200623704623500623600622304622100622200622f00622d00622e00622b00622900622a007110626100626900626000626200626733625e
:40034000683362630062660062d10062d30062d00062d20062e10062e20062df0062de0062dd0062e7006230006231016232406234206235316236406220206221056222f9
:4003800028622c05622de9622e0062280d622909622a0470ef7f7c039a7f7c01a270ef7f7e08105dd30858015d2f082108b00418805d1821e0a0112c005d2e2120a05041cc
:4003c0002ffe432f0180485d2e470001b041390db0142e000162d300703f7180560200703f7100802a3920c02662d3003c010fc011703f7180560200703f71002e0010803a
:400400000e703f71805402703f7100755a011860d320187e43e10443e1087f41e1fb41e1f77f71102101a00743281070ef7f4128ef70ef7f2901602b602f912a7f412bfe7e
:40044000412ffe7f60297f5d2b7f5d2e7f5d2f7f210171103901a0064128ef800443281070ef7f082101a00643e108800441e1f7182102a00643e104800441e1fb7f303190
:4004800032333435363738394142434445460867676767210fffe7900f18210fffe090087f4b9fea5b9fe77f492b10affc60297f492f08affc5d2e7f5d2f082108b004183b
:4004c000800b5d2e4b1821a0b0034b7f50007f5d2f21e8082108b0071829014b80071821e04b5d2e7f70bf60d35200a0069fb9758ff8703f71c07f70bf62d3074f52fba0c3
:400500001a7bfb52fc59fd60d35200492b10affc60294f62d30777fd8fe4703f71c07f4f3dfa00b0063dfb00a01d1052fc59fd28492b10affc60292007fd010ffc0017fb72
:40054000011ffa008fdb703f71c07f081028a00b9f56201875dff5748ff238fe7f500d9f47500a9f437f62d00055020062d00055010026000062d0005547007f62d0005188
:400580000021017f62d000510021f026000f7f62d00051017f70bf62d000500202475c62d3005200b0041080333920b01175764752003c470fbff310560000801f10757617
:4005c000473c470faff35200a0123920bff156000076473c470fb00455470f20103d0000b00b2057005000703f71c07f205000703f71c07f62d000500202475c50007f7edc
:4006000043e1017f41e1fe7f4323017f4123fe7f60217f60227f5d227f4f38025d23085d22085d205d225401500049f701a0035001540070fe4123fe186022186023187062
:400640003f71c07e5d205d227f7d0db37e43e1207f41e1df7f4333017f4133fe7f60315b60357f60325b60367f5d365c5d327f4f38035d33085d32085d36085d305d365465
:40068000015d325402500049f701a0035001540070fe4133fe1860361860321860331820703f71c07e5d305d365c5d327f104f380356000056010080371052fc7c04a87c78
:4006c00004b062d00020540252023bfcb00456004f1052007c04a820520162d000531801015401511854013d010ab0045600013d0000afc638fd207f104f380356000056ec
:400700000100803a107c04b062d0002054021052027c04a87c04b062d0002054003d004fb00552028022520162d000531801015401511854013d010ab0045600013d0000e8
:40074000afc362d00050ff38fd207f10509c7c0610504e7c06137c060850007c0434572750107c065d50005c7c06637c0655207f9f8662d00053489f7f62d00053499f78aa
:4007800062d000534a9f7162d000534b9f6a62d000534c9f6362d000534d9f5c62d000534e9f5562d000534f9f4e62d00053509f4762d000533362d0003c4802b0089f389f
:4007c00062d00053349f3162d00053359f2a62d000533662d0003c4902b0089f1b62d00053379f1462d00053389f0d62d000533962d0003c4803b0089efe62d000533a9e07
:40080000f762d00053469ef062d000533b9ee962d000533c62d0003c4903b0089eda62d000533d9ed362d000533e9ecc62d000533f9ec562d00053407f62d0003c4a01a052
:400840001962d0003c4b01a01162d0003c4c01a00962d0003c4d01b006710143e0207f104f38015d0021aa540062d0003c4a00b00427007f62d0003c4b00b0042700df62ef
:40088000d0003c4c00b0042700f762d0003c4d00b0042700fd3d0000a00392f838ff207f900d92f062d0003c43ffbff794b87f104f380c62d00055410162d0005542016253
:4008c000d000514854095608003d0800b0063d0902a00d3d0800b0063d0903a04080f362d00051360862d000552d0018532e62d00051350862d00051340891eb38fe62d0dc
:4009000000511808511708511608511562d000532018531f18531e18531d80b662d00051460862d000513a0891bd62d0005118540051175401511654025115540362d0004f
:40094000513c0862d000513b08919c38fc62d0005118540451175405511654065115540752040852050852060852070850000808085019087c0f1f38fc1853151853161837
:40098000185115531751165318511708511862d000532d18532e512e62d000531562d000512d62d0005316500008085116085115085200085201085202085203087c0e526e
:4009c0001862d000532018531f18531e18531d38fc62d0005149540b560a003d0a00b0063d0b02a00d3d0a00b0063d0b03a04080f362d00051390862d00055290018532a48
:400a000062d00051380862d00051370890d938fe62d000511808511708511608511562d000531c18531b18531a18531980b662d000513e0862d000513d0890ab62d00051f5
:400a400018540051175401511654025115540362d00051400862d000513f08908a38fc62d000511854045117540551165406511554075204085205085206085207085000ec
:400a80000808085019087c0f1f38fc18531518531618185115531751165318511708511862d000532918532a512a62d000531562d000512962d000531650000808511608b5
:400ac0005115085200085201085202085203087c0e521862d000531c18531b18531a18531938fc38f4207f104f38043dfb01b00e52fc54035602005601005600003dfb0281
:400b0000b03c62d00052fc5317500008511708500008503c087c0ee138fc51145317511353185117540351185402480280a0095601ff5600ff80075601005600003dfb03e3
:400b4000b03c62d00052fc5317500008511708500e085010087c0ee138fc51145317511353185117540351185402480280a0095601ff5600ff800756010056000062d000ca
:400b80005200531852015317520253165203531538fc207f104f380456000056010056020056030090d962d0003c4801b00962d0003c4901a01210570350e87c065d7c062f
:400bc000557c064d2071013d0000b04962d0003c4801b006560001803c62d0003c4401b01662d00055410162d00055250055260055270055280062d000512f62d0003a2ddc
:400c0000b01362d000513062d0003a2eb0075600015602ff3d0100b04962d0003c4901b006560101803c62d0003c4501b01662d00055420162d000552100552200552300ab
:400c400055240062d000513162d0003a29b01362d000513262d0003a2ab0075601015603ff3d0000af3f3d0100af3a3d02ffb00c3d03ffb00762d0005543ff38fc207f104f
:400c80004f380262d0003c4101b01243080143080455410062d00076300e2f0062d0003c4201b01243081043084055420062d00076320e310062d0003c4101b04162d00017
:400cc0003c4e01a0063c4e03b00443000162d0003c4f01a0063c4f03b00443000462d0003c5001a0063c5003b00443001062d0003c3301a0063c3303b00443004062d00033
:400d00003c4201b04162d0003c4e02a0063c4e03b00443000162d0003c4f02a0063c4f03b00443000462d0003c5002a0063c5003b00443001062d0003c3302a0063c3303b5
:400d4000b00443004056010056000077010f00005201112c520031801981cff04100aa4108aa38fe207f62d0005543ff62d0005518ff3c1800a00b62d000514308992e3836
:400d8000ff7f71c0085dd00843000162d000552c00552b00800962d000762c0e2b0062d000512c1188512b1913cfec4100fe1860d0187e71c0085dd00862d0000628010e95
:400dc00027000e26000e2500512562d0003a1db02b62d000512662d0003a1eb01f62d000512762d0003a1fb01362d000512862d0003a20b00762d00055440162d00006247b
:400e0000010e23000e22000e2100512162d0003a19b02b62d000512262d0003a1ab01f62d000512362d0003a1bb01362d000512462d0003a1cb00762d0005545011860d06a
:400e4000187e9907992a99f19a569f1a8fff7d0d827e104f38017c0e6138ff20703f71c07f5dd00862d0005118085000531853145313531256002066fc6cfb6cfa6cf96bbb
:400e8000126b136b146b1851121bf851131bf751141bf651181bf5c011531852f8141252f71c1352f61c1477fc7b00bfcb511254f8511354f7511454f6511854f51853186f
:400ec0001860d07f531460e8511360e95dea471480a0030213471380a003021453145deb7f104f5dd00862d00052f960e952fc60e85deb531352fa60e95deb53145dea48c3
:400f0000fc80a00303fa6cfad00303fc041352fb60e85deb04131860d020703f71c07f104f5dd00862d00052f560e852fc531360e95deb54f552f67c0ec454f6511405f569
:400f400052fb60e95deb05f552f84c137c0ec454f85f121452fb7c0ec4041251140df60ff50052fa7c0ec405f651140df552f960e85deb05f552f7531352fc7c0ec4021284
:400f800054f751140df60ff50052fb7c0ec405f651140df552fa60e85deb05f51860d020703f71c07f0019002e00480009ff00303030303030303030303030303030303019
:400fc00030303030303030303030303030303030303030303030303030303030303030303030303030303030303030303030303030303030303030303030303030303030f1
:4010000030303030303030303030303030303030303030303030303030303030303030303030303030303030303030303030303030303030303030303030303030303030b0
:401040003030303030303030303030303030303030303030303030303030303030303030303030303030303030303030303030303030303030303030303030303030303070
:401080003030303030303030303030303030303030303030303030303030303030303030303030303030303030303030303030303030303030303030303030303030303030
:020000040010ea
:020000040020da
:02000000ee1000
:00000001ff
