:4000000080673030303030307e3030307e3030307e3030307e3030307e3030307e3030307d05db7e7e3030307d037c7e7d037d7e7e3030307e3030307e3030307e3030304f
:400040007e3030307e3030307e3030307e3030307e3030307e3030307e3030307e3030307e3030307e303030711062e38770ef50202850402850602841fefb50804e55f87b
:400080000055f900711062e00270ef62e338627105627505627905627d0562d10750004e62d30762d00062d50062d40071c07c037262d000500157a008285313187509005e
:4000c000284b5113800475090062e300082860d574a04b1875090008285313187509000828a01c53121875090008283f134713ffb0065dd57460d5187a12bfeb8fc91875d6
:4001000009000828531250003f134713ffb0085dd57460d550007a12bfef188faa18711070ef62e000711062e00043e78070ef62e2007c07838fff50107f303030303030db
:40014000303030303030303030303030303030303030303030303030303030303030303030303030303030303030303030303030303030303030303030303030303030307f
:40018000303030303030303030303030303030303030303030303030303030303030303007a471106200576201aa70ef620308620200711062020062030070ef62010071a0
:4001c000106204106205ef70ef6207af620650711062060062070070ef62050071106208556209aa70ef620baa620a007110620a00620b0070ef6209007110620c00620d23
:400200000070ef620f00620e007110620e00620f0070ef620d00711062100062110070ef621300621200711062120062130070ef621100711062140062150070ef6217001e
:40024000621600711062160062170070ef621500711062180062190070ef621b00621a007110621a00621b0070ef6219007110621c00621d0070ef621f00621e00711062db
:400280001e00621f0070ef621d0070ef62602862660062630562650062e60062e70062d60062b03062b10062b20062b33362b43362b50862b60062b85562b90062ba10620d
:4002c000bb3362bc3362bd0062be0062c00062c10062c22062c33362c43362c50062c60062c85562c90062ca3062cb3362cc3362cd0062ce00626c00626d00626e00626f93
:4003000000622304622100622200622f00622d00622e00622b00622900622a00711062610062690062600062620062673362683362630062660062d10062d30062d00062c2
:40034000d20062e10062e20062df0062de0062dd0062e700622020622105622228622c05622de9622e0062280d622909622a0470ef7f7c03767f7c01a270ef7f7e08105dad
:40038000d30858015d2f082108b00418805d1821e0a0112c005d2e2120a050412ffe432f0180485d2e470001b041390db0142e000162d300703f7180560200703f7100807e
:4003c0002a3920c02662d3003c010fc011703f7180560200703f71002e0010800e703f71805402703f7100755a011860d320187e43e10443e1087f41e1fb41e1f77f71106e
:400400002101a00743281070ef7f4128ef70ef7f2901602b602f912a7f412bfe412ffe7f60297f5d2b7f5d2e7f5d2f7f210171103901a0064128ef800443281070ef7f08ab
:400440002101a00643e108800441e1f7182102a00643e104800441e1fb7f303132333435363738394142434445460867676767210fffe7900f18210fffe090087f4b9feab5
:400480005b9fe77f492b10affc60297f492f08affc5d2e7f5d2f082108b00418800b5d2e4b1821a0b0034b7f50007f5d2f21e8082108b0071829014b80071821e04b5d2ee1
:4004c0007f70bf60d35200a0069fb9758ff8703f71c07f70bf62d3074f52fba01a7bfb52fc59fd60d35200492b10affc60294f62d30777fd8fe4703f71c07f4f3dfa00b051
:40050000063dfb00a01d1052fc59fd28492b10affc60292007fd010ffc0017fb011ffa008fdb703f71c07f081028a00b9f56201875dff5748ff238fe7f500d9f47500a9fc0
:40054000437f62d00055020062d00055010026000062d0005519007f62d000510021017f62d000510021f026000f7f62d00051017f70bf62d000500202195c62d300520043
:40058000b0041080333920b01175761952003c190fbff310560000801f107576193c190faff35200a0123920bff156000076193c190fb00455190f20103d0000b00b2057f9
:4005c000005000703f71c07f205000703f71c07f62d000500202195c50007f7e43e1017f41e1fe7f4323017f4123fe7f60217f60227f5d227f4f38025d23085d22085d2017
:400600005d225401500049f701a0035001540070fe4123fe18602218602318703f71c07e5d205d227f104f3801907062d00054003d0009bff590068ff138ff207f905c62c5
:40064000d0005314905562d0005315904e62d0005316904762d0005317904062d0005318903962d000531b903262d000531c902b62d000531d902462d000531e901d62d00c
:4006800000531f901662d0005320900f62d0005321900862d000531a902c7f104f3802107c048c62d0002054001052007c04847c048c62d0002054013d0105bfe3520062b9
:4006c000d00038fe207f104f38015600006200aa62d0003c1401b043490001a006560001803962d0003c1501b031490001a006560002802762d0003c1601b00d5000a01b44
:40070000560003430008801362d0003c1701b00b5000a0075600044300023d0000afb2900438ff207f62d0003c2001b0059019801762d0003c2101b0059038800b62d00055
:400740003c1a01b00390347f104f380243005543085556010056000077010f00005201112c520031801981cff04100aa4108aa38fe207f104f380238fe207f104f38023849
:40078000fe207f104f380d10509c7c05ec504e7c05ef7c05e450007c0410209e888ffd38f3208fff00140005001a0008ff00303030303030303030303030303030303030f7
:4007c00030303030303030303030303030303030303030303030303030303030303030303030303030303030303030303030303030303030303030303030303030303030f9
:4008000030303030303030303030303030303030303030303030303030303030303030303030303030303030303030303030303030303030303030303030303030303030b8
:400840003030303030303030303030303030303030303030303030303030303030303030303030303030303030303030303030303030303030303030303030303030303078
:400880003030303030303030303030303030303030303030303030303030303030303030303030303030303030303030303030303030303030303030303030303030303038
:020000040010ea
:020000040020da
:02000000f58089
:00000001ff
